:020000040800F2
:10000000C00500209D020008E905000897040008CB
:10001000E5050008E5020008230F000800000000C5
:10002000000000000000000000000000DD010008EA
:10003000610300080000000039020008A909000857
:10004000B7020008B7020008B7020008B7020008AC
:10005000B7020008B7020008B7020008B70200089C
:10006000B7020008B7020008B7020008B70200088C
:10007000B7020008B7020008B7020008B70200087C
:10008000B7020008B7020008B7020008000000002D
:10009000000000000000000000000000B70200089F
:1000A000B7020008B7020008B7020008B70200084C
:1000B000000000000000000000000000B70200087F
:1000C000B7020008B7020008B7020008B70200082C
:1000D000B7020008B7020008210A0008000000006B
:1000E000B7020008B702000800000000000000008E
:1000F000000000000000000000000000B70200083F
:100100000000000000000000B7020008000000002E
:100110000000000000000000B7020008000000001E
:10012000B7020008B7020008B7020008B7020008CB
:10013000B7020008000000000000000000000000FE
:1001400000000000000000000000000000000000AF
:10015000B7020008B7020008B70200083D0D00080A
:10016000000000000000000000000000000000008F
:10017000000000000000000000000000000000007F
:10018000B7020008B70200080000000000000000ED
:1001900000000000B702000800000000000000009E
:1001A000000000000000000000000000000000004F
:1001B000000000000000000000000000B70200087E
:1001C000B7020008B7020008DFF80CD000F078F89A
:1001D00000480047A50F0008C00500202C4B1968F7
:1001E0000868B0E8F04F80F30988BFF36F8F4FF0D5
:1001F000000080F311887047000000000848006884
:10020000006880F308884FF0000080F3148862B61D
:1002100061B6BFF34F8FBFF36F8F00DF00BF00BF2A
:1002200008ED00E0DFF80C00016841F470010160A6
:10023000704700BF88ED00E0EFF30980BFF36F8FD8
:10024000134B1A681EF0100F08BF20ED108A20E92A
:10025000F04F106009B44FF0500080F31188BFF3E5
:100260004F8FBFF36F8F00F0E5FE4FF0000080F37B
:10027000118809BC19680868B0E8F04F1EF0100F2B
:1002800008BFB0EC108A80F30988BFF36F8F704706
:1002900044000020EFF305807047000006488047C7
:1002A00006480047FEE7FEE7FEE7FEE7FEE7FEE75B
:1002B000FEE7FEE7FEE7FEE7B9090008C90100080E
:1002C000064C074D06E0E06840F0010394E80700A3
:1002D00098471034AC42F6D3FFF77AFF5C1200085F
:1002E0007C12000800BFFEE77CB504460D464FF6C1
:1002F000FF70019048F205060020009025E014F8F8
:10030000010B00906946684600F0E4F8BDF804006F
:100310009DF8001080EA01200190002013E0BDF854
:10032000041001F4004131B1BDF8041086EA410126
:1003300089B2019106E0BDF804104FF6FF7202EA9F
:1003400041010191401C0828E9DB281EA5F10105A7
:10035000D5D101A901A800F0A0F8BDF804007CBD2A
:10036000704730B50146002412224878512801D048
:10037000002030BD487D30380D7D303D05EB8505D2
:1003800000EB4500C3B203E0885C4440501EC2B29B
:10039000002AF9D19C4201D00020EAE70120E8E7D9
:1003A00010B53F20034908700121024800F076FA99
:1003B00010BD0000EE000020F0B50A460021002329
:1003C000002400BF3DE0012505FA01F3156805EAA8
:1003D00003049C4234D105684F000326BE40B54358
:1003E000056015794E00B5400668354305601579FE
:1003F000012D02D01579022D16D185684F000326F4
:10040000BE40B543856055794E00B540866835439A
:100410008560456801268E40B543456045689679FC
:100420008E40B6B235434560C5684F000326BE40D6
:10043000B543C560D5794E00B540C6683543C56043
:10044000491C1029BFD3F0BDF0B5002300244D078F
:10045000ED0E02FA05F3CE1000F1200555F82650F6
:100460004E07F70E0F26BE40B543CF1000F1200611
:1004700046F82750CE1000F1200555F8265045EAE1
:100480000304CE1000F1200545F82640F0BD41835D
:1004900070470183704700BFFEE73CB5024600236A
:1004A000ADF8003000200FE00B8801248440234089
:1004B0004BB1BDF80030C0F10F050124AC4023431F
:1004C0009BB2ADF80030401C1028EDDBBDF80030C9
:1004D00013803CBD38B5024600238DF80030002063
:1004E0000FE00B780124844023404BB19DF800308D
:1004F000C0F107050124AC402343DBB28DF8003086
:10050000401C0828EDDB9DF80030137038BD00005A
:1005100070B506460C46154601200E49087008467F
:1005200046708C702012C8700D7128124871062117
:100530000848FFF7D9FE08490880084600780549B1
:100540008871054800880012C8710821014800F030
:10055000A5F970BDE4000020100000202DE9F04155
:1005600006460C4615461F460E4807704670014663
:100570008C702012C8700D7128124871062109482C
:10058000FFF7B2FE084908800846007805498871DF
:10059000054800880012C8710821024800F07EF961
:1005A000BDE8F081E40000201000002010B5002319
:1005B00001220F210620FFF7D1FF03221021062080
:1005C000FFF7A6FF002211210620FFF7A1FF00225E
:1005D0000E210620FFF79CFF002212210620FFF7C4
:1005E00097FF10BD00BFFEE77047000070B5002107
:1005F00000230F22C4781CB3174C246804F4E06471
:10060000C4F5E064C4F30721C1F10404E3B20A4174
:1006100044789C40E1B28478144021430C07210EB9
:100620000E4C05786155047804F01F050124AC4098
:1006300005786D11AD0005F1E025C5F8004109E030
:10064000047804F01F050124AC40054D06787611AE
:1006500045F8264070BD00000CED00E000E400E02D
:1006600080E100E029B1064A12680243044B1A6097
:1006700004E0034A12688243014B1A60704700008D
:100680003038024029B1064A12680243044B1A600E
:1006900004E0034A12688243014B1A60704700006D
:1006A00040380240F0B50021002200240225002637
:1006B0000223324F3F6807F00C0121B1042905D015
:1006C000082937D105E02E4F076036E02D4F07602F
:1006D00033E02A4F3F1F3F68C7F38056274F3F1F25
:1006E0003F6807F03F036EB1264FB7FBF3F7DFF823
:1006F0008CC0ACF1040CDCF800C0CCF3881C07FB08
:100700000CF40CE01E4FB7FBF3F7DFF870C0ACF150
:10071000040CDCF800C0CCF3881C07FB0CF4174F6A
:100720003F1F3F68C7F301477F1C7D00B4FBF5F70F
:10073000076002E0124F076000BF00BF0F4F3F6825
:1007400007F0F0010909104F7A5C0768D74047604D
:100750000A4F3F6807F4E051890A0B4F7A5C4768FB
:10076000D7408760054F3F6807F46041490B064F4B
:100770007A5C4768D740C760F0BD00000838024087
:100780000024F40040787D013400002010B588B0CA
:10079000044601210846FFF765FF01214804FFF7E1
:1007A00071FF072202213248FFF74EFE0722032184
:1007B0002F48FFF749FE0C20069002208DF81C0000
:1007C00003208DF81D0000208DF81E0001208DF8FB
:1007D0001F0006A92648FFF7EFFD0820069006A98E
:1007E0002348FFF7E9FD0220069001208DF81C0048
:1007F00003208DF81D0000208DF81E0001208DF8CB
:100800001F0006A91A48FFF7D7FD02940020ADF893
:100810000C00ADF80E00ADF81000ADF814000C207F
:10082000ADF8120002A9134800F008FB012111489D
:1008300000F09BFA40210F4800F08EFA012240F2AE
:1008400025510C4800F0D4FA26208DF8040003202E
:100850008DF805008DF8060001208DF8070001A82D
:10086000FFF7C4FE02210248FFF711FE08B010BDD9
:10087000000002400044004010B50446012C04D1A1
:1008800002210548FFF703FE04E01CB902210248DB
:10089000FFF7FFFD10BD00000000024070B50546E7
:1008A0000E460020FFF7E8FF00240CE000BF4021C7
:1008B0000B4800F066FA0028F9D0295D084800F0DE
:1008C0002CFB601CC4B2B442F0DB00BF40210448E2
:1008D00000F057FA0028F9D00120FFF7CDFF70BDD6
:1008E000004400402248006840F0805020490860E1
:1008F0002048006840F440401E4908601C483838D1
:1009000000681B49383908600846006808600846D6
:10091000006840F4805008601748091F0860081FED
:10092000006840F08070091F086000BF1048403820
:10093000006800F000700028F8D040F202700F4903
:1009400008600B483838006820F00300084938393F
:1009500008600846006840F00200086000BF0448D4
:100960003838006800F00C000828F8D17047000003
:10097000403802400070004010640107003C024013
:10098000042808D14FF0E021096941F004014FF03B
:10099000E022116107E04FF0E021096921F0040134
:1009A0004FF0E0221161704710B500F0A3FB012861
:1009B00001D000F085FB10BD10B51548006840F46B
:1009C0007000134908601348006840F001001149A5
:1009D000086000200F49083108600E4800680E4981
:1009E00008400C4908600D48091D0860081F006890
:1009F00020F48020091F0860002006490C3108609F
:100A0000FFF770FF4FF0006001498039086010BDAA
:100A100088ED00E000380240FFFFF6FE10300024B1
:100A200010B540F22551B54800F0B8F900287DD046
:100A3000B24800F06DFAC4B2B148007880B9012C18
:100A40000ED10320AE4908700020AE490870AE48B0
:100A500009784454AB480078401CAA49087010BD7E
:100A6000A748007880B9022C0ED10420A449087050
:100A70000020A4490870A44809784454A14800788B
:100A8000401CA0490870EAE79D48007880B9FF2C17
:100A90000ED105209A49087000209A4908709A489A
:100AA0000978445497480078401C96490870D6E766
:100AB00093480078062804D2DFE800F00304050616
:100AC00065C817E116E115E18E480078102850DB63
:100AD0008D488C490978445400208A490870884917
:100AE00008700F218848FFF7FFFB88490880864877
:100AF000C07B8549097C00EB012084490988884234
:100B000040D18148C0788049097900EB01208049B3
:100B100008807D4840797C49897900EB01207D4936
:100B200008807948C0797C49087000E0E3E07648A5
:100B3000007A48707448407A88707348807AC87028
:100B4000084690ED000A754880ED000A6E48C07AAC
:100B500008706D48007B48706B48407B88706A481D
:100B6000807BC870084690ED000A6C4880ED000A52
:100B700008E0654863490978445462480078401C9D
:100B800060490870B6E05F480078152854DB5E487D
:100B90005C490978445400205A4908705849087043
:100BA0005948FFF7DEFBE0B35748C078303864217E
:100BB00010FB01F154480079303800EB800001EB64
:100BC00040015148407930380844554908804E4822
:100BD000C07A303800EE100AB8EEC00AB2EE041A3D
:100BE000C0EE010A4848C0793038642110FB01F199
:100BF0004548007A303800EB800001EB4001424864
:100C0000407A3038084400EE100AB8EEC00A70EEA0
:100C1000800A3D48007B303800EE100AB8EEC00A6A
:100C200000E012E09FED3F1AC0EE011A30EEA10A7B
:100C30003D4880ED000A08E03348324909784454C1
:100C400030480078401C2F49087053E02D48007848
:100C5000092846DB2C482B490978445400202949AF
:100C60000870274908700921274800F08DF92649A6
:100C7000497A88423ED124488078032816D12248F8
:100C800040792149897908444FF6FF7101EA002033
:100C9000264908801C48C0791B49097A08444FF648
:100CA000FF7101EA00202249088023E0164880787D
:100CB00004281FD1144840791349897908444FF614
:100CC000FF7101EA00201B4908800F48C0790E49D6
:100CD000097A08444FF6FF7101EA0020164908809E
:100CE00008E0094807490978445406480078401C40
:100CF0000449087000BF00BFB1E600000044004096
:100D000000000020010000208000002008000020DA
:100D10001200002014000020040000201800002011
:100D2000200000200000C8422400002028000020ED
:100D30002C0000202A0000202E00002010B540F2D8
:100D40002551044800F02AF818B1024800F0E0F8F4
:100D5000C4B210BD0014014001F40072B2F5007F6E
:100D600000D100BFCA430280704721B1828942F49A
:100D70000052828104E082894DF6FF731A4082811D
:100D8000704702460020B1F5007F00D100BF1388F4
:100D90000B400BB1012000E00020704770B5024607
:100DA000002400230025002040F66A16B14200D13D
:100DB00000BFC1F3421501F01F03012606FA03F339
:100DC000012D02D19689334006E0022D02D1168A08
:100DD000334001E0968A33400C12012606FA04F4EF
:100DE0001688344013B10CB1012000E0002070BD22
:100DF000F0B50346002400260025002040F66A17BF
:100E0000B94200D100BF1846C1F3421401F01F06D9
:100E1000012707FA06F5012C01D10C3004E0022C61
:100E200001D1103000E014301AB107682F43076079
:100E300002E00768AF430760F0BD00002DE9FF47FF
:100E400005460E460024A14600BFA046B08900B169
:100E500000BF2C8A24F44054F08804432C82AC89CF
:100E600041F20C608443B08831890843718908439A
:100E70000443AC81AC8A24F44074B0890443AC824E
:100E80006846FFF70FFC2048854202D01F48854284
:100E900002D1DDF80C9001E0DDF80890A88900F49B
:100EA000004040B109EBC90000EB0910316849006E
:100EB000B0FBF1F707E009EBC90000EB091031685E
:100EC0008900B0FBF1F76420B7FBF0F004012009C2
:100ED000642101FB1078A88900F4004040B1322061
:100EE00000EBC800B0FBF1F000F00700044308E09D
:100EF000322000EB08106421B0FBF1F000F00F008D
:100F000004432C81BDE8FF8700100140001401401C
:100F100001468888C0F308007047C1F30802828048
:100F2000704700BFFEE702E008C8121F08C1002A90
:100F3000FAD170477047002001E001C1121F002A5A
:100F4000FBD1704770B504460420FFF719FD0C482B
:100F5000047025464FF47A70454301200949088002
:100F60004FF0E020006940F002004FF0E0210861FE
:100F700008464561006940F00100086170BD00004D
:100F800030000020320000200246002305E0481E09
:100F9000105C1844C3B2481EC1B20229F7DCD84322
:100FA000C0B270476420FFF7CDFF4FF41650FFF733
:100FB000EDFBFFF7FBFAFFF7F3F900BFFEE70000D8
:100FC0000A490968096809B9012100E0002121B135
:100FD0004FF0FF31064A116006E004490968C9680C
:100FE000C868034A4168116070470000480000204B
:100FF0007400002001460A69D1E901309860D1E906
:10100000010358605068884201D188685060002010
:1010100008611068401E10601068704742684A609E
:1010200093688B60936859609160086103685B1CEA
:10103000036070471D48006818B101201C49086012
:1010400032E000201A4908601A480068B0FA80F0BF
:10105000C0F11F0101EB8100174A52F8200008B1CE
:10106000012000E0002050B900BF502080F311881B
:10107000BFF34F8FBFF36F8F00BF00BFFEE701EBE1
:1010800081020D4B03EB820042685268426000F11E
:1010900008024368934202D1426852684260426843
:1010A000D268064B1A6000BF704700007C00002029
:1010B000680000205C000020F800002044000020B0
:1010C00010B500BF502080F31188BFF34F8FBFF3DE
:1010D0006F8F00BF00F01EF818B14FF08050044928
:1010E000086000BF002080F3118800BF10BD000021
:1010F00004ED00E00549096809B9012005E004494B
:10110000096809B9022000E0002070476000002053
:101110007C0000202DE9F0414FF0000844480068B1
:10112000002877D143480068451C4248056015BB3C
:1011300041480068006808B9012000E0002050B96B
:1011400000BF502080F31188BFF34F8FBFF36F8F24
:1011500000BF00BFFEE738480768384800683649D6
:1011600008603648076036480068401C344908600B
:10117000FFF726FF00BF3348006885423CD300BF1D
:101180002D480068006808B9012000E0002020B167
:101190004FF0FF302B4908602DE027480068C068F9
:1011A000C4686668B54202D22648066023E0201D66
:1011B000FFF720FFA06A18B104F11800FFF71AFF2B
:1011C00094F82C10012088401F49096808431E49E3
:1011D0000860E16A01EB81011C4A02EB8100211DDC
:1011E000FFF71CFF1A49E06A0968C96A8842C7D339
:1011F0004FF00108C4E700BF15480068C06A00EB63
:101200008000124951F82000012801D94FF001084F
:1012100005E0FFE70F480068401C0E4908600E48D3
:10122000006808B14FF001084046BDE8F0810000B9
:101230007C00002058000020480000204C000020C6
:101240006C000020740000205C000020F8000020EA
:101250004400002064000020680000207C12000888
:101260000000002080000000260F0008FC1200088B
:101270008000002040050000360F0008000000003C
:10128000000000000000000000000000000000005E
:10129000000000000000000000000000000000004E
:1012A000000000000000000000000000000000003E
:1012B00000000000010203040102030406070809FC
:1012C000000000000000000000000000000000001E
:1012D000000000000000000000000000000000000E
:1012E00000000000000000000000000000000000FE
:0C12F000000000000000000000000000F2
:04000005080001C925
:00000001FF
