:020000040800F2
:10000000780600209D0200085907000897040008A0
:1000100055070008E50200087B13000800000000F7
:10002000000000000000000000000000DD010008EA
:100030006103000800000000390200086D0B000891
:10004000B7020008B7020008B7020008B7020008AC
:10005000B7020008B7020008B7020008B70200089C
:10006000B7020008B7020008B7020008B70200088C
:10007000B7020008B7020008B7020008B70200087C
:10008000B7020008B7020008B7020008000000002D
:10009000000000000000000000000000B70200089F
:1000A000B7020008B7020008B7020008B70200084C
:1000B000000000000000000000000000B70200087F
:1000C000B7020008B7020008B7020008B70200082C
:1000D000B7020008B7020008E50B000800000000A6
:1000E000B7020008B702000800000000000000008E
:1000F000000000000000000000000000B70200083F
:100100000000000000000000B7020008000000002E
:100110000000000000000000B7020008000000001E
:10012000B7020008B7020008B7020008B7020008CB
:10013000B7020008000000000000000000000000FE
:1001400000000000000000000000000000000000AF
:10015000B7020008B7020008B702000895110008AE
:10016000000000000000000000000000000000008F
:10017000000000000000000000000000000000007F
:10018000B7020008B70200080000000000000000ED
:1001900000000000B702000800000000000000009E
:1001A000000000000000000000000000000000004F
:1001B000000000000000000000000000B70200087E
:1001C000B7020008B7020008DFF80CD000F078F89A
:1001D00000480047A1140008780600202C4B19683D
:1001E0000868B0E8F04F80F30988BFF36F8F4FF0D5
:1001F000000080F311887047000000000848006884
:10020000006880F308884FF0000080F3148862B61D
:1002100061B6BFF34F8FBFF36F8F00DF00BF00BF2A
:1002200008ED00E0DFF80C00016841F470010160A6
:10023000704700BF88ED00E0EFF30980BFF36F8FD8
:10024000134B1A681EF0100F08BF20ED108A20E92A
:10025000F04F106009B44FF0500080F31188BFF3E5
:100260004F8FBFF36F8F01F04BFA4FF0000080F318
:10027000118809BC19680868B0E8F04F1EF0100F2B
:1002800008BFB0EC108A80F30988BFF36F8F704706
:1002900044000020EFF305807047000006488047C7
:1002A00006480047FEE7FEE7FEE7FEE7FEE7FEE75B
:1002B000FEE7FEE7FEE7FEE77D0B0008C901000848
:1002C000064C074D06E0E06840F0010394E80700A3
:1002D00098471034AC42F6D3FFF77AFF2C1A000887
:1002E0004C1A000800BFFEE77CB504460D464FF6E9
:1002F000FF70019048F205060020009025E014F8F8
:10030000010B00906946684600F0E4F8BDF804006F
:100310009DF8001080EA01200190002013E0BDF854
:10032000041001F4004131B1BDF8041086EA410126
:1003300089B2019106E0BDF804104FF6FF7202EA9F
:1003400041010191401C0828E9DB281EA5F10105A7
:10035000D5D101A901A800F0A0F8BDF804007CBD2A
:10036000704730B50146002412224878512801D048
:10037000002030BD487D30380D7D303D05EB8505D2
:1003800000EB4500C3B203E0885C4440501EC2B29B
:10039000002AF9D19C4201D00020EAE70120E8E7D9
:1003A00010B53F20034908700121024800F02EFBE0
:1003B00010BD0000FA000020F0B50A46002100231D
:1003C000002400BF3DE0012505FA01F3156805EAA8
:1003D00003049C4234D105684F000326BE40B54358
:1003E000056015794E00B5400668354305601579FE
:1003F000012D02D01579022D16D185684F000326F4
:10040000BE40B543856055794E00B540866835439A
:100410008560456801268E40B543456045689679FC
:100420008E40B6B235434560C5684F000326BE40D6
:10043000B543C560D5794E00B540C6683543C56043
:10044000491C1029BFD3F0BDF0B5002300244D078F
:10045000ED0E02FA05F3CE1000F1200555F82650F6
:100460004E07F70E0F26BE40B543CF1000F1200611
:1004700046F82750CE1000F1200555F8265045EAE1
:100480000304CE1000F1200545F82640F0BD41835D
:1004900070470183704700BFFEE73CB5024600236A
:1004A000ADF8003000200FE00B8801248440234089
:1004B0004BB1BDF80030C0F10F050124AC4023431F
:1004C0009BB2ADF80030401C1028EDDBBDF80030C9
:1004D00013803CBD38B5024600238DF80030002063
:1004E0000FE00B780124844023404BB19DF800308D
:1004F000C0F107050124AC402343DBB28DF8003086
:10050000401C0828EDDB9DF80030137038BD00005A
:1005100070B506460C46154601200E49087008467F
:1005200046708C702012C8700D7128124871062117
:100530000848FFF7D9FE08490880084600780549B1
:100540008871054800880012C8710821014800F030
:100550005DFA70BDF0000020100000202DE9F04190
:1005600006460C4615461F460E4807704670014663
:100570008C702012C8700D7128124871062109482C
:10058000FFF7B2FE084908800846007805498871DF
:10059000054800880012C8710821024800F036FAA8
:1005A000BDE8F081F00000201000002010B500230D
:1005B00001220F210620FFF7D1FF03221021062080
:1005C000FFF7A6FF002211210620FFF7A1FF00225E
:1005D0000E210620FFF79CFF002212210620FFF7C4
:1005E00097FF10BD10B5FA200A490870FF20487027
:1005F000102088700020C8700421064800F034FFE5
:10060000044908710521034800F000FA012000F0B8
:10061000E7FE10BD1801002010B500F043F800F00F
:1006200007F800F021F800F077F8FFF7DBFF10BDC6
:1006300010B5FA200B490870FF2048701820887008
:100640000120C870092008710521064800F00CFF40
:10065000044948710621034800F0D8F90A2000F047
:10066000BFFE10BD1801002010B5FA200C4908701B
:10067000FF204870642088700220C8700020087134
:10068000272048710621064800F0EEFE04498871D3
:100690000721034800F0BAF90A2000F0A1FE10BDBE
:1006A0001801002010B5FA201A490870FF20487080
:1006B000C02088701020C870202008711020487158
:1006C000002088710120C8714020087220204872E3
:1006D000002088720120C87280200873202048738F
:1006E000002088730120C873C0200874202048743B
:1006F000002088740120C8741421064800F0B4FE5C
:10070000044908751521034800F080F90A2000F01B
:1007100067FE10BD1801002010B5FA200C490870C2
:10072000FF204870D42088700220C870FF20087114
:1007300048710621064800F097FE05498871072197
:10074000034800F063F90A2000F04AFE10BD0000E3
:100750001801002000BFFEE77047000070B50021BF
:1007600000230F22C4781CB3174C246804F4E064FF
:10077000C4F5E064C4F30721C1F10404E3B20A4103
:1007800044789C40E1B28478144021430C07210E48
:100790000E4C05786155047804F01F050124AC4027
:1007A00005786D11AD0005F1E025C5F8004109E0BF
:1007B000047804F01F050124AC40054D067876113D
:1007C00045F8264070BD00000CED00E000E400E0BC
:1007D00080E100E029B1064A12680243044B1A6026
:1007E00004E0034A12688243014B1A60704700001C
:1007F0003038024029B1064A12680243044B1A609D
:1008000004E0034A12688243014B1A6070470000FB
:1008100040380240F0B500210022002402250026C5
:100820000223324F3F6807F00C0121B1042905D0A3
:10083000082937D105E02E4F076036E02D4F0760BD
:1008400033E02A4F3F1F3F68C7F38056274F3F1FB3
:100850003F6807F03F036EB1264FB7FBF3F7DFF8B1
:100860008CC0ACF1040CDCF800C0CCF3881C07FB96
:100870000CF40CE01E4FB7FBF3F7DFF870C0ACF1DF
:10088000040CDCF800C0CCF3881C07FB0CF4174FF9
:100890003F1F3F68C7F301477F1C7D00B4FBF5F79E
:1008A000076002E0124F076000BF00BF0F4F3F68B4
:1008B00007F0F0010909104F7A5C0768D7404760DC
:1008C0000A4F3F6807F4E051890A0B4F7A5C47688A
:1008D000D7408760054F3F6807F46041490B064FDA
:1008E0007A5C4768D740C760F0BD00000838024016
:1008F0000024F40040787D013400002010B588B059
:10090000044601210846FFF765FF01214804FFF76F
:1009100071FF072202213248FFF796FD07220321CB
:100920002F48FFF791FD0C20069002208DF81C0047
:1009300003208DF81D0000208DF81E0001208DF889
:100940001F0006A92648FFF737FD0820069006A9D4
:100950002348FFF731FD0220069001208DF81C008E
:1009600003208DF81D0000208DF81E0001208DF859
:100970001F0006A91A48FFF71FFD02940020ADF8DA
:100980000C00ADF80E00ADF81000ADF814000C200E
:10099000ADF8120002A9134800F07CFC01211148B7
:1009A00000F00FFC40210F4800F002FC012240F251
:1009B00025510C4800F048FC26208DF80400032047
:1009C0008DF805008DF8060001208DF8070001A8BC
:1009D000FFF7C4FE02210248FFF759FD08B010BD21
:1009E000000002400044004010B50446012C04D130
:1009F00002210548FFF74BFD04E01CB90221024823
:100A0000FFF747FD10BD00000000024070B505462D
:100A10000E460020FFF7E8FF00240CE000BF402155
:100A20000B4800F0DAFB0028F9D0295D084800F0F7
:100A3000A0FC601CC4B2B442F0DB00BF40210448FB
:100A400000F0CBFB0028F9D00120FFF7CDFF70BDEF
:100A50000044004010B5FF20124908704870FE2085
:100A600088700C20C870832008711A2048710320F8
:100A70008871C87100200872487220208872042092
:100A8000C872002008734873202088730F2105481E
:100A900000F0F8FC0349C87310210248FFF7B6FFC5
:100AA00010BD0000040100202248006840F0805082
:100AB000204908602048006840F440401E49086012
:100AC0001C48383800681B493839086008460068F7
:100AD00008600846006840F4805008601748091F05
:100AE0000860081F006840F08070091F086000BFA0
:100AF00010484038006800F000700028F8D040F23C
:100B000002700F4908600B483838006820F0030075
:100B10000849383908600846006840F0020008605B
:100B200000BF04483838006800F00C000828F8D1ED
:100B30007047000040380240007000401064010718
:100B4000003C0240042808D14FF0E021096941F03F
:100B500004014FF0E022116107E04FF0E021096944
:100B600021F004014FF0E0221161704710B500F050
:100B700027FE012801D000F009FE10BD10B5154870
:100B8000006840F47000134908601348006840F0A2
:100B900001001149086000200F49083108600E4823
:100BA00000680E4908400C4908600D48091D08609E
:100BB000081F006820F48020091F086000200649F3
:100BC0000C310860FFF770FF4FF000600149803979
:100BD000086010BD88ED00E000380240FFFFF6FE1F
:100BE0001030002410B540F22551FE4800F002FB01
:100BF00000287DD0FB4800F0B7FBC4B2FA4800786B
:100C000080B9012C0ED10320F74908700020F74964
:100C10000870F74809784454F4480078401CF349B8
:100C2000087010BDF048007880B9022C0ED1042065
:100C3000ED4908700020ED490870ED4809784454EA
:100C4000EA480078401CE9490870EAE7E64800787D
:100C500080B9FF2C0ED10520E34908700020E3493C
:100C60000870E34809784454E0480078401CDF49A4
:100C70000870D6E7DC48007880B9FA2C0ED106203F
:100C8000D94908700020D9490870D94809784454D6
:100C9000D6480078401CD5490870C2E7D248007891
:100CA00007287DD2DFE800F00405060766CBFB00CD
:100CB0005DE25CE25BE2CD480078102850DBCC4876
:100CC000CA49097844540020C8490870C6490870C8
:100CD0000F21C748FFF708FBC6490880C448C07BFE
:100CE000C349097C00EB0120C2490988884200E021
:100CF0003EE23ED1BE48C078BD49097900EB0120F3
:100D0000BD490880BA484079B949897900EB01208A
:100D1000BA490880B648C079B9490870B448007A21
:100D20004870B348407A8870B148807AC8700846E5
:100D300090ED000AB34880ED000AAD48C07A087013
:100D4000AB48007B4870AA48407B8870A848807BED
:100D5000C870084690ED000AAA4880ED000A08E035
:100D6000A348A24909784454A0480078401C9F49F0
:100D70000870FCE19D480078152856DB9C489B498B
:100D80000978445400209949087097490870984898
:100D9000FFF7E7FAF0B39648C0783038642100E0F6
:100DA000E4E110FB01F192480079303800EB80005B
:100DB00001EB40018E484079303808449249088060
:100DC0008B48C07A303800EE100AB8EEC00AB2EE96
:100DD000041AC0EE010A8648C0793038642110FB3D
:100DE00001F18348007A303800EB800001EB4001CC
:100DF0007F48407A3038084400EE100AB8EEC00A46
:100E000070EE800A7A48007B303800EE100AB8EEA7
:100E1000C00A00E012E09FED7D1AC0EE011A30EE2C
:100E2000A10A7B4880ED000A08E071486F49097803
:100E300044546E480078401C6C49087097E16B4838
:100E40000078092847DB6A4868490978445400203B
:100E500066490870644908700921654800F012FB72
:100E60006349497A88423FD161488078032817D185
:100E70005F4840795E49897908444FF6FF7101EA7D
:100E80000020644908805A48C0795949097A0844C1
:100E90004FF6FF7101EA00205F49088024E024E05A
:100EA0005348807804281FD15148407950498979A6
:100EB00008444FF6FF7101EA0020584908804C4869
:100EC000C0794B49097A08444FF6FF7101EA0020C6
:100ED0005349088008E04648444909784454434847
:100EE0000078401C4149087041E14048007844289E
:100EF00076DB3F483D490978445400203B4908705F
:100F00003949087044213A4800F0AEFA384991F85E
:100F10004410884265D100204249087032E04148BF
:100F200000780A2101EB80003149085C34490870DF
:100F30003C480078092101EB80002D49085C3049CC
:100F4000487038480078082101EB80002849085C87
:100F50002B49887033480078072101EB8000244931
:100F6000085C2749C870084690ED000A2E482D49B4
:100F7000097800EB810080ED000A2A480078401CC7
:100F800028490870274800780428C8DB0020254934
:100F9000087059E0234800781D2101EB80001449B6
:100FA000085C174908701F4800781C2101EB80007D
:100FB0000F49085C124948701A4800781B2101EB60
:100FC00080000B49085C0E498870164800781A2189
:100FD00001EB80000649085C0949C870084625E015
:100FE000ADE0C2E00044004000000020010000200D
:100FF0008C0000200A0000201200002014000020B5
:101000000400002018000020200000200000C8423A
:1010100024000020280000202C0000202A000020AE
:101020002E000020080000207C01002090ED000A26
:1010300050485149097800EB810080ED000A4E4884
:101040000078401C4C4908704B4800780328A1DB0D
:1010500000204949087032E0474800782C2101EB14
:1010600080004649085C46490870434800782B21B7
:1010700001EB80004149085C414948703E480078D6
:10108000292101EB80003D49085C3D4988703A48C0
:101090000078292101EB80003849085C3849C87084
:1010A000084690ED000A37483349097800EB810083
:1010B00080ED000A30480078401C2F4908702E4807
:1010C00000780328C8DB00202B49087032E02A484A
:1010D00000783B2101EB80002849085C2849087012
:1010E000254800783A2101EB80002449085C244916
:1010F000487021480078392101EB80001F49085CC5
:101100001F4988701C480078382101EB80001B497A
:10111000085C1B49C870084690ED000A1A48164939
:10112000097800EB810080ED000A13480078401C2C
:1011300011490870104800780328C8DB15E00F48F3
:1011400012490978445411480078401C0F4908702E
:1011500008460078042808D10848C078362804D00A
:1011600000200B4908700949087000E000BF00BF6B
:1011700000BF56E58C010020080000208C000020F4
:101180000400002098010020A4010020010000209C
:101190000000002010B540F22551044800F02AF864
:1011A00018B1024800F0E0F8C4B210BD00140140CC
:1011B00001F40072B2F5007F00D100BFCA43028083
:1011C000704721B1828942F40052828104E0828911
:1011D0004DF6FF731A408281704702460020B1F538
:1011E000007F00D100BF13880B400BB1012000E04D
:1011F0000020704770B5024600240023002500201F
:1012000040F66A16B14200D100BFC1F3421501F0A9
:101210001F03012606FA03F3012D02D196893340FC
:1012200006E0022D02D1168A334001E0968A33404F
:101230000C12012606FA04F41688344013B10CB1DE
:10124000012000E0002070BDF0B503460024002618
:101250000025002040F66A17B94200D100BF1846A9
:10126000C1F3421401F01F06012707FA06F5012C0D
:1012700001D10C3004E0022C01D1103000E0143018
:101280001AB107682F43076002E00768AF430760A1
:10129000F0BD00002DE9FF4705460E460024A1469B
:1012A00000BFA046B08900B100BF2C8A24F440548E
:1012B000F08804432C82AC8941F20C608443B088EE
:1012C00031890843718908430443AC81AC8A24F412
:1012D0004074B0890443AC826846FFF79BFA20480B
:1012E000854202D01F48854202D1DDF80C9001E012
:1012F000DDF80890A88900F4004040B109EBC9006E
:1013000000EB091031684900B0FBF1F707E009EB89
:10131000C90000EB091031688900B0FBF1F76420C7
:10132000B7FBF0F004012009642101FB1078A889C3
:1013300000F4004040B1322000EBC800B0FBF1F0F7
:1013400000F00700044308E0322000EB081064219D
:10135000B0FBF1F000F00F0004432C81BDE8FF87E3
:10136000001001400014014001468888C0F30800C5
:101370007047C1F308028280704700BFFEE702E0B9
:1013800008C8121F08C1002AFAD170477047002010
:1013900001E001C1121F002AFBD1704770B504465D
:1013A0000420FFF7CFFB0C48047025464FF47A70F9
:1013B00045430120094908804FF0E020006940F0D2
:1013C00002004FF0E021086108464561006940F0E5
:1013D0000100086170BD00003000002032000020D4
:1013E00070B5044600F0ECF9012810D00B480088D5
:1013F000844206D309480088B4FBF0F5284600F083
:1014000049F906480088B4FBF0F100FB11444FF4A1
:101410007A7104FB01F000F003F870BD3200002087
:1014200070B5034600224FF0E02675690D4E367800
:1014300003FB06F44FF0E026B16910E04FF0E02620
:10144000B06988420BD0884202D20E1A324402E0C0
:101450002E1A0E4432440146A24200D300E0EDE7CA
:1014600000BF70BD300000200246002305E0481E8A
:10147000105C1844C3B2481EC1B20129F7DCD8433E
:10148000C0B270470246002305E0481E105C1844B5
:10149000C3B2481EC1B20229F7DCD843C0B27047BC
:1014A0006420FFF77BFF4FF41650FFF727FAFFF792
:1014B0007DF8FEF775FFFFF7CDFAFFF7ADF800BF37
:1014C000FEE700002DE9F04105460E461C4807687E
:1014D0001C480068001D00F05BF850B9194800680E
:1014E00090F82C100120884017490968814316485C
:1014F0000160681C38B936B112480168091D1348EB
:1015000000F074F81AE07C190E4800684460BC4290
:1015100007D20C480168091D0D48006800F04CF81E
:101520000CE008480168091D0A48006800F044F80A
:1015300009480068844201D207480460BDE8F08190
:1015400058000020440000205C00002064020020BD
:101550004C00002048000020740000200A4909685F
:10156000096809B9012100E0002121B14FF0FF31E4
:10157000064A116006E004490968C968C868034A58
:10158000416811607047000048000020740000208E
:1015900001460A69D1E901309860D1E90103586038
:1015A0005068884201D18868506000200861106846
:1015B000401E10601068704710B502460B685C1C36
:1015C0000CB9106907E002F1080000E040684468C7
:1015D00024689C42FAD944684C604C68A1608860D9
:1015E00041600A611468641C146010BD42684A605E
:1015F00093688B60936859609160086103685B1C15
:101600000360704700BF502080F31188BFF34F8FF5
:10161000BFF36F8F00BF0E480068401C0C49086084
:1016200008460068012812D10A480068C0B208B90B
:10163000012000E0002050B900BF502080F3118845
:10164000BFF34F8FBFF36F8F00BF00BFFEE7704740
:101650008000002004ED00E00D48006850B900BF94
:10166000502080F31188BFF34F8FBFF36F8F00BFFF
:1016700000BFFEE706480068401E054908600846AE
:10168000006820B9002080F3118800BF00BF7047B8
:101690008000002070B504460025D4B112480068CF
:1016A00008B9012000E0002050B900BF502080F3AD
:1016B0001188BFF34F8FBFF36F8F00BF00BFFEE7EE
:1016C00000F016F800212046FFF7FCFE00F02CF990
:1016D00005463DB94FF0805004490860BFF34F8F75
:1016E000BFF36F8F70BD00007C00002004ED00E0B0
:1016F00002480068401C0149086070477C000020D7
:101700001D48006818B101201C49086032E0002023
:101710001A4908601A480068B0FA80F0C0F11F0149
:1017200001EB8100174A52F8200008B1012000E0C7
:10173000002050B900BF502080F31188BFF34F8FB5
:10174000BFF36F8F00BF00BFFEE701EB81020D4BBF
:1017500003EB820042685268426000F1080243686D
:10176000934202D14268526842604268D268064B96
:101770001A6000BF704700007C0000206800002055
:101780005C000020B00100204400002010B500BF24
:10179000502080F31188BFF34F8FBFF36F8F00BFCE
:1017A00000F01EF818B14FF080500449086000BFE7
:1017B000002080F3118800BF10BD000004ED00E0A0
:1017C0000549096809B9012005E00449096809B912
:1017D000022000E000207047600000207C00002014
:1017E0002DE9F0414FF0000844480068002877D107
:1017F00043480068451C4248056015BB41480068E5
:10180000006808B9012000E0002050B900BF502056
:1018100080F31188BFF34F8FBFF36F8F00BF00BFFE
:10182000FEE7384807683848006836490860364897
:10183000076036480068401C34490860FFF78EFE98
:1018400000BF3348006885423CD300BF2D48006884
:10185000006808B9012000E0002020B14FF0FF30FF
:101860002B4908602DE027480068C068C468666896
:10187000B54202D22648066023E0201DFFF788FE0D
:10188000A06A18B104F11800FFF782FE94F82C103A
:10189000012088401F49096808431E490860E16A21
:1018A00001EB81011C4A02EB8100211DFFF79EFE26
:1018B0001A49E06A0968C96A8842C7D34FF001082B
:1018C000C4E700BF15480068C06A00EB80001249F9
:1018D00051F82000012801D94FF0010805E0FFE789
:1018E0000F480068401C0E4908600E48006808B1A7
:1018F0004FF001084046BDE8F08100007C00002068
:1019000058000020480000204C0000206C000020FF
:10191000740000205C000020B00100204400002082
:10192000640000206800002070B5002400263648BE
:10193000006850B900BF502080F31188BFF34F8F6B
:10194000BFF36F8F00BF00BFFEE7FFF75BFE2E48BF
:101950000068401E2C4908600846006800284FD1E6
:101960002A48006800284BD024E02948C068C46891
:1019700004F11800FFF70CFE201DFFF709FE94F894
:101980002C10012088402349096808432149086038
:10199000E16A01EB8101204A02EB8100211DFFF782
:1019A00025FE1E49E06A0968C96A884202D30120FF
:1019B0001B4908601648006808B9012000E00020B3
:1019C0000028D2D00CB1FFF7C9FD1648056865B1F3
:1019D00000BFFFF705FF10B10120114908606D1E1F
:1019E000002DF6D100200F4908600D48006838B17D
:1019F000012630070C490860BFF34F8FBFF36F8F8C
:101A0000FFF72AFE304670BD7C0000205400002005
:101A10003C0200205C000020B001002044000020B7
:101A2000680000206400002004ED00E04C1A00086B
:101A3000000000208C0000007E130008D81A000867
:101A40008C000020EC0500008E1300080000000050
:101A50000000000000000000000000000000000086
:101A60000000000000000000000000000000000076
:101A70000000000000000000000000000000000066
:101A80000000000001020304010203040607080924
:101A90000000000000000000000000000000000046
:101AA0000000000000000000000000000000000036
:101AB0000000000000000000000000000000000026
:101AC000000000000000000000000000AAAAAAAA6E
:081AD00000000000000000000E
:04000005080001C925
:00000001FF
